:100000000C9403010C942B010C942B010C942B01E8
:100010000C942B010C942B010C942B010C942B01B0
:100020000C942B010C942B010C943A030C94AC030C
:100030000C942B010C942B010C942B010C942B0190
:100040000C942B010C942B010C942B010C942B0180
:100050000C942B010C942B010C942B010C94C106D5
:100060000C942B010C942B010C942B010C942B0160
:100070000C942B010C942B010C942B010C942B0150
:100080000C942B010C942B010C942B010C942B0140
:100090000C942B010C942B010C942B010C942B0130
:1000A0000C942B010C942B010C942B0100000000EC
:1000B000000000002A2B28000000000000000000C3
:1000C0000000000000000000000000002C9EB4A012
:1000D000A1A2A434A6A7A5AE362D3738271E1F200F
:1000E000212223242526B333B62EB7B89F848586D4
:1000F0008788898A8B8C8D8E8F9091929394959618
:100100009798999A9B9C9D2F3130A3AD3504050695
:100110000708090A0B0C0D0E0F10111213141516F7
:100120001718191A1B1C1DAFB1B0B500080B00023F
:10013000020201000904000001020200000524007F
:100140001001052401010104240206052406000112
:100150000705810310004009040100020A000000A5
:100160000705020240000007058302400000040367
:10017000090412010002EF0201404123378000010F
:100180000102030141726475696E6F204C4C43009B
:1001900041726475696E6F204D6963726F0005016D
:1001A0000902A1010901A10085010509190129031D
:1001B00015002501950375018102950175058103DF
:1001C00005010930093109381581257F7508950326
:1001D0008106C0C005010906A1018502050719E0D5
:1001E00029E715002501750195088102950175081B
:1001F0008103950675081500256505071900296511
:100200008100C000F73611241FBECFEFDAE0DEBF59
:10021000CDBF11E0A0E0B1E0EAE3FFE602C0059047
:100220000D92AE33B107D9F721E0AEE3B1E001C0E2
:100230001D92AF3EB207E1F711E0C3E0D1E004C088
:100240002197FE010E949037C230D107C9F70E9462
:1002500048090C949B370C94000040917101509117
:10026000720120916F013091700142175307B4F46D
:100270009091E8009570E1F39091E80092FD19C02B
:100280008093F100809171019091720101968F73BA
:100290009927892B19F48EEF8093E80080917101E2
:1002A000909172010196909372018093710181E0A7
:1002B000089580E00895CF92DF92EF92FF920F931E
:1002C0001F93CF93DF931F92CDB7DEB7182F062F62
:1002D000E42E862F880F8E5F99830E942D0183E084
:1002E0000E942D01F12EC12E9981D92E8C2D8F19AE
:1002F000801798F4F601E7FE02C0849101C0808166
:100300000E942D01182F80E00E942D018123FFEF14
:10031000CF1ADF0A8111EACF01C081E00F90DF918F
:10032000CF911F910F91FF90EF90DF90CF900895A4
:10033000DF92EF92FF920F931F93CF93DF93D82E0C
:100340008A017B01E40EF51EEB01CE15DF0571F08D
:10035000D7FE03C0FE01849101C088810E942D0157
:1003600021968111F2CF8FEF9FEF01C0C801DF917D
:10037000CF911F910F91FF90EF90DF900895615002
:1003800030F02091F100FC0120830196F8CF289AEB
:1003900084E6809374010895CF92DF92EF92FF92EA
:1003A0000F931F93CF93DF936C017A018B01C0E011
:1003B000D0E0CE15DF0589F0D8016D918D01D60111
:1003C000ED91FC910190F081E02DC6010995892BFA
:1003D00011F47E0102C02196ECCFC701DF91CF91CD
:1003E0001F910F91FF90EF90DF90CF900895809133
:1003F000670181110DC082E08093630184E08093E6
:100400006401109266011092650181E0809367019A
:1004100083E691E008950F931F93CF93DF931F928C
:10042000CDB7DEB782E0898342E450E06CE271E050
:1004300080E80E9498010E94F701DC0112960D915C
:100440001C9113970115110569F0D801ED91FC91EC
:100450000280F381E02DBE016F5F7F4FC8010995D7
:1004600097FF07C089810F90DF91CF911F910F9166
:100470000895F80100851185E5CF3FB7F894809184
:100480005F0190916001A0916101B091620126B578
:10049000A89B05C02F3F19F00196A11DB11D3FBFBC
:1004A000BA2FA92F982F8827820F911DA11DB11D4A
:1004B000BC01CD0142E0660F771F881F991F4A9546
:1004C000D1F70895DC01FB0112968C91129790E010
:1004D0002481358182179307D1F491818081813AFB
:1004E00031F481E0913091F0933089F411C0813280
:1004F00071F49B3021F482811F968C9305C09A3051
:1005000031F4828150968C9381E00895089580E0C3
:100510000895DC01FB0188E4808389E4818384E41D
:1005200082831D969C911D979F709F5B93831D9660
:100530008D919C911E9724E0969587952A95E1F7D9
:100540008F708F5B848385E00895EF92FF920F9305
:100550001F93CF93DF93FB012081213851F5238135
:10056000223239F5DC0112962C9130E0448155811C
:1005700042175307F1F4EC010B851C85E12CF12C9B
:100580000115110591F0F801448155816281738153
:1005900080E80E9498018F3FFFEF9F0769F0E80E07
:1005A000F91ED8010D911C91EBCF81E08F87C70117
:1005B00005C080E090E002C08FEF9FEFDF91CF9108
:1005C0001F910F91FF90EF900895CF93DF93CDB7D8
:1005D000DEB769970FB6F894DEBF0FBECDBFFC0142
:1005E000DB018C918F5F8C93BE016F5F7F4F89E140
:1005F000DB011D928A95E9F729E0298384E08A834B
:1006000091E09D8383E08E832A8721E22B879C875C
:100610009D879F8722E2288B27E02B8B25E02C8B60
:100620008E8B20E430E0388F2F8B998F82818B83E3
:1006300095858685998B8A8B838180688D8B49E12E
:1006400050E080E00E94980169960FB6F894DEBFF2
:100650000FBECDBFDF91CF910895FC0182818F5BEA
:10066000FB01808381E00895089580E090E0089583
:100670000E9496371F920F920FB60F9211248F93FC
:100680009F938091E1009091E100937F9093E1002E
:1006900083FF0FC01092E90091E09093EB0010925D
:1006A000EC0092E39093ED001092750198E0909326
:1006B000F00082FF20C093E09093E9009091F20057
:1006C000992319F09AE39093E8009091730199238C
:1006D00039F090917301915090937301992389F1AE
:1006E00090917401992339F09091740191509093F5
:1006F0007401992341F184FF10C08091E2008E7E45
:1007000081608093E2008091E1008F7E8093E10020
:1007100080913F018E7E806111C080FF16C0809164
:10072000E2008E7E80618093E2008091E1008E7E07
:100730008093E10080913F018E7E816080933F0134
:1007400004C05D98CDCF2898D6CF9F918F910F9000
:100750000FBE0F901F9018951F920F920FB60F9219
:100760001124CF92DF92EF92FF920F931F932F935A
:100770003F934F935F936F937F938F939F93AF9329
:10078000BF93EF93FF93CF93DF93CDB7DEB76C9713
:10079000DEBFCDBF1092E9008091E80083FFEDC17C
:1007A00068E0CE0145960E94BF0182EF8093E80089
:1007B0008D8987FF05C09091E80090FFFCCF03C0B2
:1007C0009EEF9093E800982F907609F0C6C09E891E
:1007D0002F89188D91110CC0803829F48091400127
:1007E0008093F10002C01092F1001092F10048C114
:1007F000422F50E0512B913051F4811141C14130D1
:10080000510509F03DC1809140018D7F0BC09330AF
:1008100061F4811135C14130510509F031C1809138
:1008200040018260809340012BC1953041F480915A
:10083000E80080FFFCCF20682093E30021C19630C0
:1008400009F05FC0EB8CFC8C1092E90010927201F1
:1008500010927101123091F51092700110926F0197
:100860000E940B0299E0BE016F5F7F4FDB01E92F11
:100870001D92EA95E9F799831A8391E09E8390EAA5
:1008800098879AEF99872091710130917201275FC3
:100890003F4F3C832B838D831092E90010927201AD
:1008A00010927101F0927001E0926F0149E050E006
:1008B00080E00E9498010E940B02E2C0F092700159
:1008C000E0926F010E94F701DC011296ED90FC901E
:1008D0001397E114F10409F4C0C0D701ED91FC9124
:1008E0000480F581E02DBE016B5E7F4FC701099545
:1008F000009719F00CF0C4C0C7C0F701E084F18480
:10090000E8CF973009F4C0C0983021F481E080939B
:10091000F100B6C0993009F0B3C0837009F0B4C0DB
:10092000E1E0F1E081E021E036E39081992361F09C
:100930008093E9002093EB0091919093EC00309329
:10094000ED008F5F873089F78EE78093EA00109281
:10095000EA008F898093750193C08B8D9C8D1092D6
:10096000E9001092720110927101909370018093CE
:100970006F01898D811156C08E899D89913A59F4F4
:10098000813209F081C047E050E06BE071E080E027
:100990000E94980175C0913209F076C0833289F4C3
:1009A000888D90E0982F88272F89822BA0E0B0E0D7
:1009B0008093070190930801A0930901B0930A0165
:1009C0005FC0803269F48091E80082FFFCCF67E06D
:1009D0008BE091E00E94BF018BEF8093E80006C09E
:1009E000823209F04DC08F898093120180913E01BF
:1009F000882319F0EEEFFAE002C0E0E0F8E0809121
:100A00000B0190910C01A0910D01B0910E01803B62
:100A10009440A105B10509F07BC08091120180FFCF
:100A200093C076C00E94F701DC0112960D911C91D3
:100A300013970115110541F1D801ED91FC91019039
:100A4000F081E02DBE016B5E7F4FC80109958111D9
:100A500017C0F80100851185ECCF113009F44EC0A4
:100A6000133091F48F89882309F445C0823081F4D2
:100A700040E86DE080E991E00E945B01882321F06D
:100A80008EEF8093E80079C081E28093EB0075C01F
:100A9000813029F440E86BE084E891E0EDCF8330C9
:100AA00099F70E94F701DC011296ED90FC901397E4
:100AB0008E010F5F1F4F6801E114F10479F0D70137
:100AC000ED91FC910680F781E02DB801C7010995F1
:100AD000080F111DF701E084F184EECFD8011C92BC
:100AE000F60101900020E9F73197BF016C197D09EB
:100AF00040E0C601C1CF6EE671E002C062E771E07E
:100B00006115710509F2FB01449150E080E840CF86
:100B10000FB6F894A895809160008861809360007A
:100B2000109260000FBEA895EE3F2AE0F20739F060
:100B30008091FE0A9091FF0A91838083A1CF109249
:100B4000FF0A1092FE0A9CCFEE3F8AE0F80731F0D0
:100B5000808191819093FF0A8093FE0A87E797E74F
:100B6000918380839BE088E10FB6F894A8958093E9
:100B700060000FBE9093600083CF6C960FB6F89420
:100B8000DEBF0FBECDBFDF91CF91FF91EF91BF913F
:100B9000AF919F918F917F916F915F914F913F9115
:100BA0002F911F910F91FF90EF90DF90CF900F90BA
:100BB0000FBE0F901F9018952FB7F89487708093F1
:100BC000E9009091E800892F807295FF04C0909110
:100BD000F20080E4891B2FBF08958F929F92AF92FD
:100BE000BF92CF92DF92EF92FF926B017C010E9445
:100BF0003D024B015C01C114D104E104F104F1F0A8
:100C00000E943D02DC01CB0188199909AA09BB09A0
:100C1000883E9340A105B10570F321E0C21AD108C6
:100C2000E108F10888EE880E83E0981EA11CB11C33
:100C3000C114D104E104F10419F7DDCFFF90EF9066
:100C4000DF90CF90BF90AF909F908F9008957F924C
:100C50008F929F92AF92BF92CF92DF92EF92FF92CC
:100C60000F931F93CF93DF93C82E8B017A0180914E
:100C70007501811103C08FEF9FEF75C080913F0117
:100C800080FF05C08091E00082608093E000CE2D5F
:100C9000DF2DD12C8AEF882E8C2D8770B82E8C2DCD
:100CA0008072A82E8C2D8074982E9AE3792E20972E
:100CB00009F452C08C2D0E94DC05282F81110AC036
:100CC0008A948820C1F261E070E080E090E00E94A8
:100CD000ED05EDCF90E0C817D9070CF42C2F3FB7E6
:100CE000F894B092E9008091E80085FF33C0822F2C
:100CF00090E0C81BD90BAA2029F02150A8F010922F
:100D0000F100FBCFF801C7FE07C0215058F0449115
:100D10004093F1003196F9CF215020F0419140935A
:100D2000F100FACF080F191FDD2019F07092E800CA
:100D30000AC08091E80085FD08C07092E800DD24BB
:100D4000D394209739F0D12C05C0209719F4911035
:100D50007092E8003FBFABCFD110ACCF5D9A84E674
:100D600080937301C701DF91CF911F910F91FF9085
:100D7000EF90DF90CF90BF90AF909F908F907F903B
:100D800008951F920F920FB60F9211242F933F9345
:100D90008F939F93AF93BF9380915B0190915C0180
:100DA000A0915D01B0915E0130915A0123E0230FC3
:100DB0002D3720F40196A11DB11D05C026E8230F93
:100DC0000296A11DB11D20935A0180935B0190935F
:100DD0005C01A0935D01B0935E0180915F019091F1
:100DE0006001A0916101B09162010196A11DB11D48
:100DF00080935F0190936001A0936101B0936201C1
:100E0000BF91AF919F918F913F912F910F900FBE06
:100E10000F901F901895AF92BF92CF92DF92EF92F2
:100E2000FF920F931F93CF93DF931F92CDB7DEB73F
:100E30007C0169836A01590141E050E0BE016F5FA6
:100E40007F4FFC0183810E9427068C0197FD0BC018
:100E5000F7018381A501B60180640E94270697FDF2
:100E600002C0800F911F0F90DF91CF911F910F91C2
:100E7000FF90EF90DF90CF90BF90AF90089580915A
:100E8000520181116BC081E080934501809346013E
:100E90002BE431E0309348012093470110924A013E
:100EA0001092490127E131E0309342012093410142
:100EB00010924D0110924C0110924F0110924E0170
:100EC000809350018093510181EC80934B010E94EB
:100ED000F701FC0121818091450190E0820F911D75
:100EE000089724F081E08093520138C0A281B38139
:100EF000109729F481E491E0938382830EC01896C1
:100F00008D919C911997009711F0DC01F8CF81E445
:100F100091E019969C938E9318978081809343015A
:100F2000818180934401908180914601890F808363
:100F300080E0909145018917A8F6A0914701B091F2
:100F40004801A80FB11D9C91A181B0E0A050BF4FF6
:100F50009C9391819F5F91838F5FEBCF81E491E0C0
:100F60000895CF93DF93DC01683810F0685825C0EE
:100F7000E62FF0E067FF12C0E058F10981E090E051
:100F800001C0880FEA95EAF7809514969C91149712
:100F9000892314968C93149760E00FC0E455FF4F9B
:100FA0006491662329F167FF08C014968C91149709
:100FB0008D7F14968C9314976F77FD01369686E09B
:100FC000662321F09081961301C0108281503196E2
:100FD0008111F6CFED010E943F07AE014C5F5F4FDC
:100FE00028E030E062E00E940B0781E090E002C060
:100FF00080E090E0DF91CF910895CF93DF93DC0103
:10100000683810F068582DC0E62FF0E067FF11C077
:10101000E058F10981E090E001C0880FEA95EAF715
:1010200014969C911497892B14968C93149760E0D6
:1010300018C0E455FF4F6491611109C081E090E050
:1010400013969C938E93129780E090E046C067FFC2
:1010500008C014968C911497826014968C93149700
:101060006F7716968C911697861751F117968C917B
:101070001797861729F118968C911897861701F102
:1010800019968C9119978617D9F01A968C911A9700
:101090008617B1F01B968C911B97861789F0FD017E
:1010A000369680E090E02191211105C0FD01E80F06
:1010B000F91F668305C0019686309105A1F7BECF62
:1010C000ED010E943F07AE014C5F5F4F28E030E02A
:1010D00062E00E940B0781E090E0DF91CF910895DC
:1010E000EF92FF921F93CF93DF93EC01162F0E9494
:1010F000FD077C01612FCE010E94B107C70199272E
:10110000DF91CF911F91FF90EF900895FC018091A6
:101110007501811103C08FEF9FEF08959FB7F89479
:1011200082E08093E9002091F20030E0121613066D
:1011300014F421E030E02115310559F0289A84E6B5
:10114000809374018091F10080838091F200882364
:1011500019F09FBFC90108958BE68093E800F9CF8D
:10116000CF93DF931F92CDB7DEB76983DC01ED919A
:10117000FC910280F381E02D41E050E0BE016F5F01
:101180007F4F09950F90DF91CF91089583E0809371
:10119000E9008091F200882319F08AE38093E80047
:1011A0000895CF93DF931F92CDB7DEB7FC018485FE
:1011B000958597FD05C02FEF3FEF358724870BC03E
:1011C000CE0101960E948608019719F4898190E06A
:1011D00002C08FEF9FEF0F90DF91CF9108950F9393
:1011E0001F93CF93DF931F92CDB7DEB78C01FC0125
:1011F0008485958597FF0EC0CE0101960E948608D2
:10120000019719F4298130E002C02FEF3FEFF80178
:1012100035872487F801848595850F90DF91CF91DC
:101220001F910F910895FC018485958597FD0BC052
:101230009FB7F89482E08093E9008091F2009FBF0D
:1012400090E0019608959FB7F89482E08093E900BA
:101250008091F2009FBF90E00895CF93DF93EC015F
:1012600080911201882331F083E00E94270618162E
:10127000190634F081E090E09B838A8380E090E05F
:10128000DF91CF91089583E00E94DC0590E00895FE
:10129000CF93DF9300D000D0CDB7DEB7789484B57C
:1012A000826084BD84B5816084BD85B5826085BD62
:1012B00085B5816085BD80916E00816080936E00F0
:1012C00010928100809181008260809381008091E2
:1012D0008100816080938100809180008160809393
:1012E00080008091910082608093910080919100B4
:1012F0008160809391008091900081608093900044
:101300008091C10084608093C1008091C10082609F
:101310008093C1008091C10081608093C100809161
:10132000C30081608093C3008091C000826080937D
:10133000C0008091C20081608093C20080917A00D9
:10134000846080937A0080917A00826080937A0032
:1013500080917A00816080937A0080917A00806821
:1013600080937A00109275011092400110923F0113
:101370008091D70081608093D70080EA8093D80065
:1013800089B5806189BD89B5826089BD09B400FED7
:10139000FDCF61E070E080E090E00E94ED0580917B
:1013A000D8008F7C80618093D8008091E000807F9E
:1013B0008093E0008091E1008E7E8093E1008DE0DB
:1013C0008093E200559A209A5D982898EEEFFFE707
:1013D000859194918B3F9C4D19F481E080933E015F
:1013E00060E287E791E00E94FD0764EF71E080E032
:1013F00090E00E94ED0560E287E791E00E94B1076E
:1014000068E873E180E090E00E94ED0560E287E724
:1014100091E00E94FD0764EF71E080E090E00E949F
:10142000ED0560E287E791E00E94B10768E873E1AB
:1014300080E090E00E94ED0564E287E791E00E9481
:10144000FD0764EF71E080E090E00E94ED0564E24A
:1014500087E791E00E94B10768E873E180E090E0DF
:101460000E94ED0563E287E791E00E94FD0764EFCB
:1014700071E080E090E00E94ED0563E287E791E093
:101480000E94B10768E873E180E090E00E94ED05FA
:1014900063E287E791E00E94FD0764EF71E080E07E
:1014A00090E00E94ED0563E287E791E00E94B107BA
:1014B00068E873E180E090E00E94ED0566E287E76E
:1014C00091E00E94FD0764EF71E080E090E00E94EF
:1014D000ED0566E287E791E00E94B10768E873E1F5
:1014E00080E090E00E94ED056AE387E791E00E94CA
:1014F000FD0764EF71E080E090E00E94ED056AE393
:1015000087E791E00E94B10768E873E180E090E02E
:101510000E94ED056CE787E791E00E94FD0764EF0C
:1015200071E080E090E00E94ED056CE787E791E0D4
:101530000E94B10768E873E180E090E00E94ED0549
:1015400063E287E791E00E94FD0764EF71E080E0CD
:1015500090E00E94ED0563E287E791E00E94B10709
:1015600068E873E180E090E00E94ED056CE787E7B2
:1015700091E00E94FD0764EF71E080E090E00E943E
:10158000ED056CE787E791E00E94B10768E873E139
:1015900080E090E00E94ED0560E287E791E00E9424
:1015A000FD0764EF71E080E090E00E94ED0560E2ED
:1015B00087E791E00E94B10768E873E180E090E07E
:1015C0000E94ED0560E287E791E00E94FD0764EF6D
:1015D00071E080E090E00E94ED0560E287E791E035
:1015E0000E94B10768E873E180E090E00E94ED0599
:1015F00060E287E791E00E94FD0764EF71E080E020
:1016000090E00E94ED0560E287E791E00E94B1075B
:1016100068E873E180E090E00E94ED0560E287E712
:1016200091E00E94FD0764EF71E080E090E00E948D
:10163000ED0560E287E791E00E94B10768E873E199
:1016400080E090E00E94ED0560E287E791E00E9473
:10165000FD0764EF71E080E090E00E94ED0560E23C
:1016600087E791E00E94B10768E873E180E090E0CD
:101670000E94ED0560E287E791E00E94FD0764EFBC
:1016800071E080E090E00E94ED0560E287E791E084
:101690000E94B10768E873E180E090E00E94ED05E8
:1016A00060E287E791E00E94FD0764EF71E080E06F
:1016B00090E00E94ED0560E287E791E00E94B107AB
:1016C00068E873E180E090E00E94ED0560E287E762
:1016D00091E00E94FD0764EF71E080E090E00E94DD
:1016E000ED0560E287E791E00E94B10768E873E1E9
:1016F00080E090E00E94ED0560E287E791E00E94C3
:10170000FD0764EF71E080E090E00E94ED0560E28B
:1017100087E791E00E94B10768E873E180E090E01C
:101720000E94ED0560E287E791E00E94FD0764EF0B
:1017300071E080E090E00E94ED0560E287E791E0D3
:101740000E94B10768E873E180E090E00E94ED0537
:1017500060E287E791E00E94FD0764EF71E080E0BE
:1017600090E00E94ED0560E287E791E00E94B107FA
:1017700068E873E180E090E00E94ED0560E287E7B1
:1017800091E00E94FD0764EF71E080E090E00E942C
:10179000ED0560E287E791E00E94B10768E873E138
:1017A00080E090E00E94ED0560E287E791E00E9412
:1017B000FD0764EF71E080E090E00E94ED0560E2DB
:1017C00087E791E00E94B10768E873E180E090E06C
:1017D0000E94ED0560E287E791E00E94FD0764EF5B
:1017E00071E080E090E00E94ED0560E287E791E023
:1017F0000E94B10768E873E180E090E00E94ED0587
:1018000060E287E791E00E94FD0764EF71E080E00D
:1018100090E00E94ED0560E287E791E00E94B10749
:1018200068E873E180E090E00E94ED0560E287E700
:1018300091E00E94FD0764EF71E080E090E00E947B
:10184000ED0560E287E791E00E94B10768E873E187
:1018500080E090E00E94ED0560E287E791E00E9461
:10186000FD0764EF71E080E090E00E94ED0560E22A
:1018700087E791E00E94B10768E873E180E090E0BB
:101880000E94ED0560E287E791E00E94FD0764EFAA
:1018900071E080E090E00E94ED0560E287E791E072
:1018A0000E94B10768E873E180E090E00E94ED05D6
:1018B00060E287E791E00E94FD0764EF71E080E05D
:1018C00090E00E94ED0560E287E791E00E94B10799
:1018D00068E873E180E090E00E94ED0560E287E750
:1018E00091E00E94FD0764EF71E080E090E00E94CB
:1018F000ED0560E287E791E00E94B10768E873E1D7
:1019000080E090E00E94ED0560E287E791E00E94B0
:10191000FD0764EF71E080E090E00E94ED0560E279
:1019200087E791E00E94B10768E873E180E090E00A
:101930000E94ED0560E287E791E00E94FD0764EFF9
:1019400071E080E090E00E94ED0560E287E791E0C1
:101950000E94B10768E873E180E090E00E94ED0525
:1019600060E287E791E00E94FD0764EF71E080E0AC
:1019700090E00E94ED0560E287E791E00E94B107E8
:1019800068E873E180E090E00E94ED0560E287E79F
:1019900091E00E94FD0764EF71E080E090E00E941A
:1019A000ED0560E287E791E00E94B10768E873E126
:1019B00080E090E00E94ED0560E287E791E00E9400
:1019C000FD0764EF71E080E090E00E94ED0560E2C9
:1019D00087E791E00E94B10768E873E180E090E05A
:1019E0000E94ED0560E287E791E00E94FD0764EF49
:1019F00071E080E090E00E94ED0560E287E791E011
:101A00000E94B10768E873E180E090E00E94ED0574
:101A100061E287E791E00E94FD0764EF71E080E0FA
:101A200090E00E94ED0561E287E791E00E94B10736
:101A300068E873E180E090E00E94ED0563E287E7EB
:101A400091E00E94FD0764EF71E080E090E00E9469
:101A5000ED0563E287E791E00E94B10768E873E172
:101A600080E090E00E94ED0563E287E791E00E944C
:101A7000FD0764EF71E080E090E00E94ED0563E215
:101A800087E791E00E94B10768E873E180E090E0A9
:101A90000E94ED056CE787E791E00E94FD0764EF87
:101AA00071E080E090E00E94ED056CE787E791E04F
:101AB0000E94B10768E873E180E090E00E94ED05C4
:101AC00060E287E791E00E94FD0764EF71E080E04B
:101AD00090E00E94ED0560E287E791E00E94B10787
:101AE00068E873E180E090E00E94ED056BE387E732
:101AF00091E00E94FD0764EF71E080E090E00E94B9
:101B0000ED056BE387E791E00E94B10768E873E1B8
:101B100080E090E00E94ED0566E287E791E00E9498
:101B2000FD0764EF71E080E090E00E94ED0566E261
:101B300087E791E00E94B10768E873E180E090E0F8
:101B40000E94ED0566E287E791E00E94FD0764EFE1
:101B500071E080E090E00E94ED0566E287E791E0A9
:101B60000E94B10768E873E180E090E00E94ED0513
:101B700066E287E791E00E94FD0764EF71E080E094
:101B800090E00E94ED0566E287E791E00E94B107D0
:101B900068E873E180E090E00E94ED0566E287E787
:101BA00091E00E94FD0764EF71E080E090E00E9408
:101BB000ED0566E287E791E00E94B10768E873E10E
:101BC00080E090E00E94ED0566E287E791E00E94E8
:101BD000FD0764EF71E080E090E00E94ED0566E2B1
:101BE00087E791E00E94B10768E873E180E090E048
:101BF0000E94ED0566E287E791E00E94FD0764EF31
:101C000071E080E090E00E94ED0566E287E791E0F8
:101C10000E94B10768E873E180E090E00E94ED0562
:101C200064E287E791E00E94FD0764EF71E080E0E5
:101C300090E00E94ED0564E287E791E00E94B10721
:101C400068E873E180E090E00E94ED0563E287E7D9
:101C500091E00E94FD0764EF71E080E090E00E9457
:101C6000ED0563E287E791E00E94B10768E873E160
:101C700080E090E00E94ED0560E287E791E00E943D
:101C8000FD0764EF71E080E090E00E94ED0560E206
:101C900087E791E00E94B10768E873E180E090E097
:101CA0000E94ED0560E287E791E00E94FD0764EF86
:101CB00071E080E090E00E94ED0560E287E791E04E
:101CC0000E94B10768E873E180E090E00E94ED05B2
:101CD00060E287E791E00E94FD0764EF71E080E039
:101CE00090E00E94ED0560E287E791E00E94B10775
:101CF00068E873E180E090E00E94ED0563E287E729
:101D000091E00E94FD0764EF71E080E090E00E94A6
:101D1000ED0563E287E791E00E94B10768E873E1AF
:101D200080E090E00E94ED0564E287E791E00E9488
:101D3000FD0764EF71E080E090E00E94ED0564E251
:101D400087E791E00E94B10768E873E180E090E0E6
:101D50000E94ED0563E287E791E00E94FD0764EFD2
:101D600071E080E090E00E94ED0563E287E791E09A
:101D70000E94B10768E873E180E090E00E94ED0501
:101D800063E287E791E00E94FD0764EF71E080E085
:101D900090E00E94ED0563E287E791E00E94B107C1
:101DA00068E873E180E090E00E94ED0560E487E779
:101DB00091E00E94FD0764EF71E080E090E00E94F6
:101DC000ED0560E487E791E00E94B10768E873E100
:101DD00080E090E00E94ED056CE787E791E00E94CB
:101DE000FD0764EF71E080E090E00E94ED056CE794
:101DF00087E791E00E94B10768E873E180E090E036
:101E00000E94ED056EE287E791E00E94FD0764EF16
:101E100071E080E090E00E94ED056EE287E791E0DE
:101E20000E94B10768E873E180E090E00E94ED0550
:101E300060E287E791E00E94FD0764EF71E080E0D7
:101E400090E00E94ED0560E287E791E00E94B10713
:101E500068E873E180E090E00E94ED0560E287E7CA
:101E600091E00E94FD0764EF71E080E090E00E9445
:101E7000ED0560E287E791E00E94B10768E873E151
:101E800080E090E00E94ED0560E287E791E00E942B
:101E9000FD0764EF71E080E090E00E94ED0560E2F4
:101EA00087E791E00E94B10768E873E180E090E085
:101EB0000E94ED0560E287E791E00E94FD0764EF74
:101EC00071E080E090E00E94ED0560E287E791E03C
:101ED0000E94B10768E873E180E090E00E94ED05A0
:101EE00060E687E791E00E94FD0764EF71E080E023
:101EF00090E00E94ED0560E687E791E00E94B1075F
:101F000068E873E180E090E00E94ED0565E287E714
:101F100091E00E94FD0764EF71E080E090E00E9494
:101F2000ED0565E287E791E00E94B10768E873E19B
:101F300080E090E00E94ED0563E287E791E00E9477
:101F4000FD0764EF71E080E090E00E94ED0563E240
:101F500087E791E00E94B10768E873E180E090E0D4
:101F60000E94ED0563E287E791E00E94FD0764EFC0
:101F700071E080E090E00E94ED0563E287E791E088
:101F80000E94B10768E873E180E090E00E94ED05EF
:101F900060E487E791E00E94FD0764EF71E080E074
:101FA00090E00E94ED0560E487E791E00E94B107B0
:101FB00068E873E180E090E00E94ED056BE387E75D
:101FC00091E00E94FD0764EF71E080E090E00E94E4
:101FD000ED056BE387E791E00E94B10768E873E1E4
:101FE00080E090E00E94ED0560E287E791E00E94CA
:101FF000FD0764EF71E080E090E00E94ED0560E293
:1020000087E791E00E94B10768E873E180E090E023
:102010000E94ED0560E287E791E00E94FD0764EF12
:1020200071E080E090E00E94ED0560E287E791E0DA
:102030000E94B10768E873E180E090E00E94ED053E
:102040006AE387E791E00E94FD0764EF71E080E0BA
:1020500090E00E94ED056AE387E791E00E94B107F6
:1020600068E873E180E090E00E94ED0560E487E7B6
:1020700091E00E94FD0764EF71E080E090E00E9433
:10208000ED0560E487E791E00E94B10768E873E13D
:1020900080E090E00E94ED0563E287E791E00E9416
:1020A000FD0764EF71E080E090E00E94ED0563E2DF
:1020B00087E791E00E94B10768E873E180E090E073
:1020C0000E94ED0564E287E791E00E94FD0764EF5E
:1020D00071E080E090E00E94ED0564E287E791E026
:1020E0000E94B10768E873E180E090E00E94ED058E
:1020F00060E687E791E00E94FD0764EF71E080E011
:1021000090E00E94ED0560E687E791E00E94B1074C
:1021100068E873E180E090E00E94ED0560E287E707
:1021200091E00E94FD0764EF71E080E090E00E9482
:10213000ED0560E287E791E00E94B10768E873E18E
:1021400080E090E00E94ED0560E287E791E00E9468
:10215000FD0764EF71E080E090E00E94ED0560E231
:1021600087E791E00E94B10768E873E180E090E0C2
:102170000E94ED0560E287E791E00E94FD0764EFB1
:1021800071E080E090E00E94ED0560E287E791E079
:102190000E94B10768E873E180E090E00E94ED05DD
:1021A00060E287E791E00E94FD0764EF71E080E064
:1021B00090E00E94ED0560E287E791E00E94B107A0
:1021C00068E873E180E090E00E94ED0560E287E757
:1021D00091E00E94FD0764EF71E080E090E00E94D2
:1021E000ED0560E287E791E00E94B10768E873E1DE
:1021F00080E090E00E94ED0560E287E791E00E94B8
:10220000FD0764EF71E080E090E00E94ED0560E280
:1022100087E791E00E94B10768E873E180E090E011
:102220000E94ED0560EB87E791E00E94FD0764EFF7
:1022300071E080E090E00E94ED0560EB87E791E0BF
:102240000E94B10768E873E180E090E00E94ED052C
:1022500060E287E791E00E94FD0764EF71E080E0B3
:1022600090E00E94ED0560E287E791E00E94B107EF
:1022700068E873E180E090E00E94ED0560E287E7A6
:1022800091E00E94FD0764EF71E080E090E00E9421
:10229000ED0560E287E791E00E94B10768E873E12D
:1022A00080E090E00E94ED0560E287E791E00E9407
:1022B000FD0764EF71E080E090E00E94ED0560E2D0
:1022C00087E791E00E94B10768E873E180E090E061
:1022D0000E94ED0560E287E791E00E94FD0764EF50
:1022E00071E080E090E00E94ED0560E287E791E018
:1022F0000E94B10768E873E180E090E00E94ED057C
:1023000060E287E791E00E94FD0764EF71E080E002
:1023100090E00E94ED0560E287E791E00E94B1073E
:1023200068E873E180E090E00E94ED056CE787E7E4
:1023300091E00E94FD0764EF71E080E090E00E9470
:10234000ED056CE787E791E00E94B10768E873E16B
:1023500080E090E00E94ED0563E287E791E00E9453
:10236000FD0764EF71E080E090E00E94ED0563E21C
:1023700087E791E00E94B10768E873E180E090E0B0
:102380000E94ED056CE787E791E00E94FD0764EF8E
:1023900071E080E090E00E94ED056CE787E791E056
:1023A0000E94B10768E873E180E090E00E94ED05CB
:1023B00060E287E791E00E94FD0764EF71E080E052
:1023C00090E00E94ED0560E287E791E00E94B1078E
:1023D00068E873E180E090E00E94ED0560E287E745
:1023E00091E00E94FD0764EF71E080E090E00E94C0
:1023F000ED0560E287E791E00E94B10768E873E1CC
:1024000080E090E00E94ED0560E287E791E00E94A5
:10241000FD0764EF71E080E090E00E94ED0560E26E
:1024200087E791E00E94B10768E873E180E090E0FF
:102430000E94ED056CE787E791E00E94FD0764EFDD
:1024400071E080E090E00E94ED056CE787E791E0A5
:102450000E94B10768E873E180E090E00E94ED051A
:1024600063E287E791E00E94FD0764EF71E080E09E
:1024700090E00E94ED0563E287E791E00E94B107DA
:1024800068E873E180E090E00E94ED056CE787E783
:1024900091E00E94FD0764EF71E080E090E00E940F
:1024A000ED056CE787E791E00E94B10768E873E10A
:1024B00080E090E00E94ED0560E287E791E00E94F5
:1024C000FD0764EF71E080E090E00E94ED0560E2BE
:1024D00087E791E00E94B10768E873E180E090E04F
:1024E0000E94ED0560E287E791E00E94FD0764EF3E
:1024F00071E080E090E00E94ED0560E287E791E006
:102500000E94B10768E873E180E090E00E94ED0569
:1025100060E287E791E00E94FD0764EF71E080E0F0
:1025200090E00E94ED0560E287E791E00E94B1072C
:1025300068E873E180E090E00E94ED0560E287E7E3
:1025400091E00E94FD0764EF71E080E090E00E945E
:10255000ED0560E287E791E00E94B10768E873E16A
:1025600080E090E00E94ED0560E287E791E00E9444
:10257000FD0764EF71E080E090E00E94ED0560E20D
:1025800087E791E00E94B10768E873E180E090E09E
:102590000E94ED0560E287E791E00E94FD0764EF8D
:1025A00071E080E090E00E94ED0560E287E791E055
:1025B0000E94B10768E873E180E090E00E94ED05B9
:1025C00060E287E791E00E94FD0764EF71E080E040
:1025D00090E00E94ED0560E287E791E00E94B1077C
:1025E00068E873E180E090E00E94ED0560E287E733
:1025F00091E00E94FD0764EF71E080E090E00E94AE
:10260000ED0560E287E791E00E94B10768E873E1B9
:1026100080E090E00E94ED0560E287E791E00E9493
:10262000FD0764EF71E080E090E00E94ED0560E25C
:1026300087E791E00E94B10768E873E180E090E0ED
:102640000E94ED0560E287E791E00E94FD0764EFDC
:1026500071E080E090E00E94ED0560E287E791E0A4
:102660000E94B10768E873E180E090E00E94ED0508
:1026700060E287E791E00E94FD0764EF71E080E08F
:1026800090E00E94ED0560E287E791E00E94B107CB
:1026900068E873E180E090E00E94ED0560E287E782
:1026A00091E00E94FD0764EF71E080E090E00E94FD
:1026B000ED0560E287E791E00E94B10768E873E109
:1026C00080E090E00E94ED0560E287E791E00E94E3
:1026D000FD0764EF71E080E090E00E94ED0560E2AC
:1026E00087E791E00E94B10768E873E180E090E03D
:1026F0000E94ED0560E287E791E00E94FD0764EF2C
:1027000071E080E090E00E94ED0560E287E791E0F3
:102710000E94B10768E873E180E090E00E94ED0557
:1027200060E287E791E00E94FD0764EF71E080E0DE
:1027300090E00E94ED0560E287E791E00E94B1071A
:1027400068E873E180E090E00E94ED0560E287E7D1
:1027500091E00E94FD0764EF71E080E090E00E944C
:10276000ED0560E287E791E00E94B10768E873E158
:1027700080E090E00E94ED0560E287E791E00E9432
:10278000FD0764EF71E080E090E00E94ED0560E2FB
:1027900087E791E00E94B10768E873E180E090E08C
:1027A0000E94ED0560E287E791E00E94FD0764EF7B
:1027B00071E080E090E00E94ED0560E287E791E043
:1027C0000E94B10768E873E180E090E00E94ED05A7
:1027D00060E287E791E00E94FD0764EF71E080E02E
:1027E00090E00E94ED0560E287E791E00E94B1076A
:1027F00068E873E180E090E00E94ED0560E287E721
:1028000091E00E94FD0764EF71E080E090E00E949B
:10281000ED0560E287E791E00E94B10768E873E1A7
:1028200080E090E00E94ED0560E287E791E00E9481
:10283000FD0764EF71E080E090E00E94ED0560E24A
:1028400087E791E00E94B10768E873E180E090E0DB
:102850000E94ED0560E287E791E00E94FD0764EFCA
:1028600071E080E090E00E94ED0560E287E791E092
:102870000E94B10768E873E180E090E00E94ED05F6
:1028800060E287E791E00E94FD0764EF71E080E07D
:1028900090E00E94ED0560E287E791E00E94B107B9
:1028A00068E873E180E090E00E94ED0560E287E770
:1028B00091E00E94FD0764EF71E080E090E00E94EB
:1028C000ED0560E287E791E00E94B10768E873E1F7
:1028D00080E090E00E94ED0560E287E791E00E94D1
:1028E000FD0764EF71E080E090E00E94ED0560E29A
:1028F00087E791E00E94B10768E873E180E090E02B
:102900000E94ED056BE387E791E00E94FD0764EF0D
:1029100071E080E090E00E94ED056BE387E791E0D5
:102920000E94B10768E873E180E090E00E94ED0545
:1029300063E287E791E00E94FD0764EF71E080E0C9
:1029400090E00E94ED0563E287E791E00E94B10705
:1029500068E873E180E090E00E94ED0565E287E7BA
:1029600091E00E94FD0764EF71E080E090E00E943A
:10297000ED0565E287E791E00E94B10768E873E141
:1029800080E090E00E94ED056EE287E791E00E9412
:10299000FD0764EF71E080E090E00E94ED056EE2DB
:1029A00087E791E00E94B10768E873E180E090E07A
:1029B0000E94ED0560E287E791E00E94FD0764EF69
:1029C00071E080E090E00E94ED0560E287E791E031
:1029D0000E94B10768E873E180E090E00E94ED0595
:1029E00060E287E791E00E94FD0764EF71E080E01C
:1029F00090E00E94ED0560E287E791E00E94B10758
:102A000068E873E180E090E00E94ED0561E287E70D
:102A100091E00E94FD0764EF71E080E090E00E9489
:102A2000ED0561E287E791E00E94B10768E873E194
:102A300080E090E00E94ED0563E287E791E00E946C
:102A4000FD0764EF71E080E090E00E94ED0563E235
:102A500087E791E00E94B10768E873E180E090E0C9
:102A60000E94ED0561E287E791E00E94FD0764EFB7
:102A700071E080E090E00E94ED0561E287E791E07F
:102A80000E94B10768E873E180E090E00E94ED05E4
:102A900060E287E791E00E94FD0764EF71E080E06B
:102AA00090E00E94ED0560E287E791E00E94B107A7
:102AB00068E873E180E090E00E94ED0560E287E75E
:102AC00091E00E94FD0764EF71E080E090E00E94D9
:102AD000ED0560E287E791E00E94B10768E873E1E5
:102AE00080E090E00E94ED0560E287E791E00E94BF
:102AF000FD0764EF71E080E090E00E94ED0560E288
:102B000087E791E00E94B10768E873E180E090E018
:102B10000E94ED0560E287E791E00E94FD0764EF07
:102B200071E080E090E00E94ED0560E287E791E0CF
:102B30000E94B10768E873E180E090E00E94ED0533
:102B400060E287E791E00E94FD0764EF71E080E0BA
:102B500090E00E94ED0560E287E791E00E94B107F6
:102B600068E873E180E090E00E94ED0560E287E7AD
:102B700091E00E94FD0764EF71E080E090E00E9428
:102B8000ED0560E287E791E00E94B10768E873E134
:102B900080E090E00E94ED0560E287E791E00E940E
:102BA000FD0764EF71E080E090E00E94ED0560E2D7
:102BB00087E791E00E94B10768E873E180E090E068
:102BC0000E94ED056EE287E791E00E94FD0764EF49
:102BD00071E080E090E00E94ED056EE287E791E011
:102BE0000E94B10768E873E180E090E00E94ED0583
:102BF00065E287E791E00E94FD0764EF71E080E005
:102C000090E00E94ED0565E287E791E00E94B10740
:102C100068E873E180E090E00E94ED0563E287E7F9
:102C200091E00E94FD0764EF71E080E090E00E9477
:102C3000ED0563E287E791E00E94B10768E873E180
:102C400080E090E00E94ED056CE787E791E00E944C
:102C5000FD0764EF71E080E090E00E94ED056CE715
:102C600087E791E00E94B10768E873E180E090E0B7
:102C70000E94ED0560E287E791E00E94FD0764EFA6
:102C800071E080E090E00E94ED0560E287E791E06E
:102C90000E94B10768E873E180E090E00E94ED05D2
:102CA00060E287E791E00E94FD0764EF71E080E059
:102CB00090E00E94ED0560E287E791E00E94B10795
:102CC00068E873E180E090E00E94ED0563E287E749
:102CD00091E00E94FD0764EF71E080E090E00E94C7
:102CE000ED0563E287E791E00E94B10768E873E1D0
:102CF00080E090E00E94ED0566E287E791E00E94A7
:102D0000FD0764EF71E080E090E00E94ED0566E26F
:102D100087E791E00E94B10768E873E180E090E006
:102D20000E94ED0563E287E791E00E94FD0764EFF2
:102D300071E080E090E00E94ED0563E287E791E0BA
:102D40000E94B10768E873E180E090E00E94ED0521
:102D500061E287E791E00E94FD0764EF71E080E0A7
:102D600090E00E94ED0561E287E791E00E94B107E3
:102D700068E873E180E090E00E94ED0560E287E79B
:102D800091E00E94FD0764EF71E080E090E00E9416
:102D9000ED0560E287E791E00E94B10768E873E122
:102DA00080E090E00E94ED0560E287E791E00E94FC
:102DB000FD0764EF71E080E090E00E94ED0560E2C5
:102DC00087E791E00E94B10768E873E180E090E056
:102DD0000E94ED056CE787E791E00E94FD0764EF34
:102DE00071E080E090E00E94ED056CE787E791E0FC
:102DF0000E94B10768E873E180E090E00E94ED0571
:102E000063E287E791E00E94FD0764EF71E080E0F4
:102E100090E00E94ED0563E287E791E00E94B10730
:102E200068E873E180E090E00E94ED056CE787E7D9
:102E300091E00E94FD0764EF71E080E090E00E9465
:102E4000ED056CE787E791E00E94B10768E873E160
:102E500080E090E00E94ED0560E287E791E00E944B
:102E6000FD0764EF71E080E090E00E94ED0560E214
:102E700087E791E00E94B10768E873E180E090E0A5
:102E80000E94ED0560E287E791E00E94FD0764EF94
:102E900071E080E090E00E94ED0560E287E791E05C
:102EA0000E94B10768E873E180E090E00E94ED05C0
:102EB00063E287E791E00E94FD0764EF71E080E044
:102EC00090E00E94ED0563E287E791E00E94B10780
:102ED00068E873E180E090E00E94ED0566E287E734
:102EE00091E00E94FD0764EF71E080E090E00E94B5
:102EF000ED0566E287E791E00E94B10768E873E1BB
:102F000080E090E00E94ED0560E487E791E00E9498
:102F1000FD0764EF71E080E090E00E94ED0560E461
:102F200087E791E00E94B10768E873E180E090E0F4
:102F30000E94ED056AE387E791E00E94FD0764EFD8
:102F400071E080E090E00E94ED056AE387E791E0A0
:102F50000E94B10768E873E180E090E00E94ED050F
:102F600060E287E791E00E94FD0764EF71E080E096
:102F700090E00E94ED0560E287E791E00E94B107D2
:102F800068E873E180E090E00E94ED0560E287E789
:102F900091E00E94FD0764EF71E080E090E00E9404
:102FA000ED0560E287E791E00E94B10768E873E110
:102FB00080E090E00E94ED056AE387E791E00E94DF
:102FC000FD0764EF71E080E090E00E94ED056AE3A8
:102FD00087E791E00E94B10768E873E180E090E044
:102FE0000E94ED0563E287E791E00E94FD0764EF30
:102FF00071E080E090E00E94ED0563E287E791E0F8
:103000000E94B10768E873E180E090E00E94ED055E
:1030100065E287E791E00E94FD0764EF71E080E0E0
:1030200090E00E94ED0565E287E791E00E94B1071C
:1030300068E873E180E090E00E94ED056EE287E7CA
:1030400091E00E94FD0764EF71E080E090E00E9453
:10305000ED056EE287E791E00E94B10768E873E151
:1030600080E090E00E94ED0560E287E791E00E9439
:10307000FD0764EF71E080E090E00E94ED0560E202
:1030800087E791E00E94B10768E873E180E090E093
:103090000E94ED0560E287E791E00E94FD0764EF82
:1030A00071E080E090E00E94ED0560E287E791E04A
:1030B0000E94B10768E873E180E090E00E94ED05AE
:1030C00060E287E791E00E94FD0764EF71E080E035
:1030D00090E00E94ED0560E287E791E00E94B10771
:1030E00068E873E180E090E00E94ED0560E287E728
:1030F00091E00E94FD0764EF71E080E090E00E94A3
:10310000ED0560E287E791E00E94B10768E873E1AE
:1031100080E090E00E94ED0560E287E791E00E9488
:10312000FD0764EF71E080E090E00E94ED0560E251
:1031300087E791E00E94B10768E873E180E090E0E2
:103140000E94ED0560EB87E791E00E94FD0764EFC8
:1031500071E080E090E00E94ED0560EB87E791E090
:103160000E94B10768E873E180E090E00E94ED05FD
:1031700060E287E791E00E94FD0764EF71E080E084
:1031800090E00E94ED0560E287E791E00E94B107C0
:1031900068E873E180E090E00E94ED0560E287E777
:1031A00091E00E94FD0764EF71E080E090E00E94F2
:1031B000ED0560E287E791E00E94B10768E873E1FE
:1031C00080E090E00E94ED0560E287E791E00E94D8
:1031D000FD0764EF71E080E090E00E94ED0560E2A1
:1031E00087E791E00E94B10768E873E180E090E032
:1031F0000E94ED056BE387E791E00E94FD0764EF15
:1032000071E080E090E00E94ED056BE387E791E0DC
:103210000E94B10768E873E180E090E00E94ED054C
:1032200063E287E791E00E94FD0764EF71E080E0D0
:1032300090E00E94ED0563E287E791E00E94B1070C
:1032400068E873E180E090E00E94ED0563E287E7C3
:1032500091E00E94FD0764EF71E080E090E00E9441
:10326000ED0563E287E791E00E94B10768E873E14A
:1032700080E090E00E94ED0563E287E791E00E9424
:10328000FD0764EF71E080E090E00E94ED0563E2ED
:1032900087E791E00E94B10768E873E180E090E081
:1032A0000E94ED0563E287E791E00E94FD0764EF6D
:1032B00071E080E090E00E94ED0563E287E791E035
:1032C0000E94B10768E873E180E090E00E94ED059C
:1032D00063E287E791E00E94FD0764EF71E080E020
:1032E00090E00E94ED0563E287E791E00E94B1075C
:1032F00068E873E180E090E00E94ED056CE787E705
:1033000091E00E94FD0764EF71E080E090E00E9490
:10331000ED056CE787E791E00E94B10768E873E18B
:1033200080E090E00E94ED056EE287E791E00E9468
:10333000FD0764EF71E080E090E00E94ED056EE231
:1033400087E791E00E94B10768E873E180E090E0D0
:103350000E94ED056CE787E791E00E94FD0764EFAE
:1033600071E080E090E00E94ED056CE787E791E076
:103370000E94B10768E873E180E090E00E94ED05EB
:1033800063E287E791E00E94FD0764EF71E080E06F
:1033900090E00E94ED0563E287E791E00E94B107AB
:1033A00068E873E180E090E00E94ED056CE787E754
:1033B00091E00E94FD0764EF71E080E090E00E94E0
:1033C000ED056CE787E791E00E94B10768E873E1DB
:1033D00080E090E00E94ED0560E287E791E00E94C6
:1033E000FD0764EF71E080E090E00E94ED0560E28F
:1033F00087E791E00E94B10768E873E180E090E020
:103400000E94ED0560E287E791E00E94FD0764EF0E
:1034100071E080E090E00E94ED0560E287E791E0D6
:103420000E94B10768E873E180E090E00E94ED053A
:103430006EE287E791E00E94FD0764EF71E080E0B3
:1034400090E00E94ED056EE287E791E00E94B107EF
:1034500068E873E180E090E00E94ED056CE787E7A3
:1034600091E00E94FD0764EF71E080E090E00E942F
:10347000ED056CE787E791E00E94B10768E873E12A
:1034800080E090E00E94ED0563E287E791E00E9412
:10349000FD0764EF71E080E090E00E94ED0563E2DB
:1034A00087E791E00E94B10768E873E180E090E06F
:1034B0000E94ED0563E287E791E00E94FD0764EF5B
:1034C00071E080E090E00E94ED0563E287E791E023
:1034D0000E94B10768E873E180E090E00E94ED058A
:1034E00063E287E791E00E94FD0764EF71E080E00E
:1034F00090E00E94ED0563E287E791E00E94B1074A
:1035000068E873E180E090E00E94ED0563E287E700
:1035100091E00E94FD0764EF71E080E090E00E947E
:10352000ED0563E287E791E00E94B10768E873E187
:1035300080E090E00E94ED0564E287E791E00E9460
:10354000FD0764EF71E080E090E00E94ED0564E229
:1035500087E791E00E94B10768E873E180E090E0BE
:103560000E94ED0560E687E791E00E94FD0764EFA9
:1035700071E080E090E00E94ED0560E687E791E071
:103580000E94B10768E873E180E090E00E94ED05D9
:1035900060E287E791E00E94FD0764EF71E080E060
:1035A00090E00E94ED0560E287E791E00E94B1079C
:1035B00068E873E180E090E00E94ED0560E287E753
:1035C00091E00E94FD0764EF71E080E090E00E94CE
:1035D000ED0560E287E791E00E94B10768E873E1DA
:1035E00080E090E00E94ED0560E287E791E00E94B4
:1035F000FD0764EF71E080E090E00E94ED0560E27D
:1036000087E791E00E94B10768E873E180E090E00D
:103610000E94ED0563E287E791E00E94FD0764EFF9
:1036200071E080E090E00E94ED0563E287E791E0C1
:103630000E94B10768E873E180E090E00E94ED0528
:1036400066E287E791E00E94FD0764EF71E080E0A9
:1036500090E00E94ED0566E287E791E00E94B107E5
:1036600068E873E180E090E00E94ED0563E287E79F
:1036700091E00E94FD0764EF71E080E090E00E941D
:10368000ED0563E287E791E00E94B10768E873E126
:1036900080E090E00E94ED0563E287E791E00E9400
:1036A000FD0764EF71E080E090E00E94ED0563E2C9
:1036B00087E791E00E94B10768E873E180E090E05D
:1036C0000E94ED0563E287E791E00E94FD0764EF49
:1036D00071E080E090E00E94ED0563E287E791E011
:1036E0000E94B10768E873E180E090E00E94ED0578
:1036F0006CE787E791E00E94FD0764EF71E080E0EE
:1037000090E00E94ED056CE787E791E00E94B10729
:1037100068E873E180E090E00E94ED0561E287E7F0
:1037200091E00E94FD0764EF71E080E090E00E946C
:10373000ED0561E287E791E00E94B10768E873E177
:1037400080E090E00E94ED0560E487E791E00E9450
:10375000FD0764EF71E080E090E00E94ED0560E419
:1037600087E791E00E94B10768E873E180E090E0AC
:103770000E94ED0565E287E791E00E94FD0764EF96
:1037800071E080E090E00E94ED0565E287E791E05E
:103790000E94B10768E873E180E090E00E94ED05C7
:1037A0006EE287E791E00E94FD0764EF71E080E040
:1037B00090E00E94ED056EE287E791E00E94B1077C
:1037C00068E873E180E090E00E94ED0560E287E741
:1037D00091E00E94FD0764EF71E080E090E00E94BC
:1037E000ED0560E287E791E00E94B10768E873E1C8
:1037F00080E090E00E94ED0560E287E791E00E94A2
:10380000FD0764EF71E080E090E00E94ED0560E26A
:1038100087E791E00E94B10768E873E180E090E0FB
:103820000E94ED056BE387E791E00E94FD0764EFDE
:1038300071E080E090E00E94ED056BE387E791E0A6
:103840000E94B10768E873E180E090E00E94ED0516
:1038500063E287E791E00E94FD0764EF71E080E09A
:1038600090E00E94ED0563E287E791E00E94B107D6
:1038700068E873E180E090E00E94ED056CE787E77F
:1038800091E00E94FD0764EF71E080E090E00E940B
:10389000ED056CE787E791E00E94B10768E873E106
:1038A00080E090E00E94ED0560E287E791E00E94F1
:1038B000FD0764EF71E080E090E00E94ED0560E2BA
:1038C00087E791E00E94B10768E873E180E090E04B
:1038D0000E94ED0560E287E791E00E94FD0764EF3A
:1038E00071E080E090E00E94ED0560E287E791E002
:1038F0000E94B10768E873E180E090E00E94ED0566
:1039000060E287E791E00E94FD0764EF71E080E0EC
:1039100090E00E94ED0560E287E791E00E94B10728
:1039200068E873E180E090E00E94ED056CE787E7CE
:1039300091E00E94FD0764EF71E080E090E00E945A
:10394000ED056CE787E791E00E94B10768E873E155
:1039500080E090E00E94ED0563E287E791E00E943D
:10396000FD0764EF71E080E090E00E94ED0563E206
:1039700087E791E00E94B10768E873E180E090E09A
:103980000E94ED056BE387E791E00E94FD0764EF7D
:1039900071E080E090E00E94ED056BE387E791E045
:1039A0000E94B10768E873E180E090E00E94ED05B5
:1039B00060E287E791E00E94FD0764EF71E080E03C
:1039C00090E00E94ED0560E287E791E00E94B10778
:1039D00068E873E180E090E00E94ED0560E287E72F
:1039E00091E00E94FD0764EF71E080E090E00E94AA
:1039F000ED0560E287E791E00E94B10768E873E1B6
:103A000080E090E00E94ED0560E287E791E00E948F
:103A1000FD0764EF71E080E090E00E94ED0560E258
:103A200087E791E00E94B10768E873E180E090E0E9
:103A30000E94ED0560E287E791E00E94FD0764EFD8
:103A400071E080E090E00E94ED0560E287E791E0A0
:103A50000E94B10768E873E180E090E00E94ED0504
:103A600060E287E791E00E94FD0764EF71E080E08B
:103A700090E00E94ED0560E287E791E00E94B107C7
:103A800068E873E180E090E00E94ED0560E287E77E
:103A900091E00E94FD0764EF71E080E090E00E94F9
:103AA000ED0560E287E791E00E94B10768E873E105
:103AB00080E090E00E94ED0560E287E791E00E94DF
:103AC000FD0764EF71E080E090E00E94ED0560E2A8
:103AD00087E791E00E94B10768E873E180E090E039
:103AE0000E94ED0560E287E791E00E94FD0764EF28
:103AF00071E080E090E00E94ED0560E287E791E0F0
:103B00000E94B10768E873E180E090E00E94ED0553
:103B100060E287E791E00E94FD0764EF71E080E0DA
:103B200090E00E94ED0560E287E791E00E94B10716
:103B300068E873E180E090E00E94ED0560E287E7CD
:103B400091E00E94FD0764EF71E080E090E00E9448
:103B5000ED0560E287E791E00E94B10768E873E154
:103B600080E090E00E94ED0560E287E791E00E942E
:103B7000FD0764EF71E080E090E00E94ED0560E2F7
:103B800087E791E00E94B10768E873E180E090E088
:103B90000E94ED0560E287E791E00E94FD0764EF77
:103BA00071E080E090E00E94ED0560E287E791E03F
:103BB0000E94B10768E873E180E090E00E94ED05A3
:103BC00060E287E791E00E94FD0764EF71E080E02A
:103BD00090E00E94ED0560E287E791E00E94B10766
:103BE00068E873E180E090E00E94ED0560E287E71D
:103BF00091E00E94FD0764EF71E080E090E00E9498
:103C0000ED0560E287E791E00E94B10768E873E1A3
:103C100080E090E00E94ED056CE787E791E00E946C
:103C2000FD0764EF71E080E090E00E94ED056CE735
:103C300087E791E00E94B10768E873E180E090E0D7
:103C40000E94ED0563E287E791E00E94FD0764EFC3
:103C500071E080E090E00E94ED0563E287E791E08B
:103C60000E94B10768E873E180E090E00E94ED05F2
:103C700061E287E791E00E94FD0764EF71E080E078
:103C800090E00E94ED0561E287E791E00E94B107B4
:103C900068E873E180E090E00E94ED0560E287E76C
:103CA00091E00E94FD0764EF71E080E090E00E94E7
:103CB000ED0560E287E791E00E94B10768E873E1F3
:103CC00080E090E00E94ED056AE387E791E00E94C2
:103CD000FD0764EF71E080E090E00E94ED056AE38B
:103CE00087E791E00E94B10768E873E180E090E027
:103CF0000E94ED0560E487E791E00E94FD0764EF14
:103D000071E080E090E00E94ED0560E487E791E0DB
:103D10000E94B10768E873E180E090E00E94ED0541
:103D200064E287E791E00E94FD0764EF71E080E0C4
:103D300090E00E94ED0564E287E791E00E94B10700
:103D400068E873E180E090E00E94ED0560E687E7B7
:103D500091E00E94FD0764EF71E080E090E00E9436
:103D6000ED0560E687E791E00E94B10768E873E13E
:103D700080E090E00E94ED0560E287E791E00E941C
:103D8000FD0764EF71E080E090E00E94ED0560E2E5
:103D900087E791E00E94B10768E873E180E090E076
:103DA0000E94ED0560E287E791E00E94FD0764EF65
:103DB00071E080E090E00E94ED0560E287E791E02D
:103DC0000E94B10768E873E180E090E00E94ED0591
:103DD00060E287E791E00E94FD0764EF71E080E018
:103DE00090E00E94ED0560E287E791E00E94B10754
:103DF00068E873E180E090E00E94ED056BE387E7FF
:103E000091E00E94FD0764EF71E080E090E00E9485
:103E1000ED056BE387E791E00E94B10768E873E185
:103E200080E090E00E94ED0563E287E791E00E9468
:103E3000FD0764EF71E080E090E00E94ED0563E231
:103E400087E791E00E94B10768E873E180E090E0C5
:103E50000E94ED0565E287E791E00E94FD0764EFAF
:103E600071E080E090E00E94ED0565E287E791E077
:103E70000E94B10768E873E180E090E00E94ED05E0
:103E80006EE287E791E00E94FD0764EF71E080E059
:103E900090E00E94ED056EE287E791E00E94B10795
:103EA00068E873E180E090E00E94ED0560E687E756
:103EB00091E00E94FD0764EF71E080E090E00E94D5
:103EC000ED0560E687E791E00E94B10768E873E1DD
:103ED00080E090E00E94ED056AE387E791E00E94B0
:103EE000FD0764EF71E080E090E00E94ED056AE379
:103EF00087E791E00E94B10768E873E180E090E015
:103F00000E94ED0560E487E791E00E94FD0764EF01
:103F100071E080E090E00E94ED0560E487E791E0C9
:103F20000E94B10768E873E180E090E00E94ED052F
:103F300065E287E791E00E94FD0764EF71E080E0B1
:103F400090E00E94ED0565E287E791E00E94B107ED
:103F500068E873E180E090E00E94ED056EE287E79B
:103F600091E00E94FD0764EF71E080E090E00E9424
:103F7000ED056EE287E791E00E94B10768E873E122
:103F800080E090E00E94ED0560E287E791E00E940A
:103F9000FD0764EF71E080E090E00E94ED0560E2D3
:103FA00087E791E00E94B10768E873E180E090E064
:103FB0000E94ED0560E287E791E00E94FD0764EF53
:103FC00071E080E090E00E94ED0560E287E791E01B
:103FD0000E94B10768E873E180E090E00E94ED057F
:103FE00060E287E791E00E94FD0764EF71E080E006
:103FF00090E00E94ED0560E287E791E00E94B10742
:1040000068E873E180E090E00E94ED0560E287E7F8
:1040100091E00E94FD0764EF71E080E090E00E9473
:10402000ED0560E287E791E00E94B10768E873E17F
:1040300080E090E00E94ED0560E287E791E00E9459
:10404000FD0764EF71E080E090E00E94ED0560E222
:1040500087E791E00E94B10768E873E180E090E0B3
:104060000E94ED0560EB87E791E00E94FD0764EF99
:1040700071E080E090E00E94ED0560EB87E791E061
:104080000E94B10768E873E180E090E00E94ED05CE
:1040900060E287E791E00E94FD0764EF71E080E055
:1040A00090E00E94ED0560E287E791E00E94B10791
:1040B00068E873E180E090E00E94ED0560E287E748
:1040C00091E00E94FD0764EF71E080E090E00E94C3
:1040D000ED0560E287E791E00E94B10768E873E1CF
:1040E00080E090E00E94ED0560E287E791E00E94A9
:1040F000FD0764EF71E080E090E00E94ED0560E272
:1041000087E791E00E94B10768E873E180E090E002
:104110000E94ED0560E287E791E00E94FD0764EFF1
:1041200071E080E090E00E94ED0560E287E791E0B9
:104130000E94B10768E873E180E090E00E94ED051D
:1041400060E287E791E00E94FD0764EF71E080E0A4
:1041500090E00E94ED0560E287E791E00E94B107E0
:1041600068E873E180E090E00E94ED056CE787E786
:1041700091E00E94FD0764EF71E080E090E00E9412
:10418000ED056CE787E791E00E94B10768E873E10D
:1041900080E090E00E94ED0563E287E791E00E94F5
:1041A000FD0764EF71E080E090E00E94ED0563E2BE
:1041B00087E791E00E94B10768E873E180E090E052
:1041C0000E94ED0561E287E791E00E94FD0764EF40
:1041D00071E080E090E00E94ED0561E287E791E008
:1041E0000E94B10768E873E180E090E00E94ED056D
:1041F00060E287E791E00E94FD0764EF71E080E0F4
:1042000090E00E94ED0560E287E791E00E94B1072F
:1042100068E873E180E090E00E94ED0560E287E7E6
:1042200091E00E94FD0764EF71E080E090E00E9461
:10423000ED0560E287E791E00E94B10768E873E16D
:1042400080E090E00E94ED0560E287E791E00E9447
:10425000FD0764EF71E080E090E00E94ED0560E210
:1042600087E791E00E94B10768E873E180E090E0A1
:104270000E94ED056CE787E791E00E94FD0764EF7F
:1042800071E080E090E00E94ED056CE787E791E047
:104290000E94B10768E873E180E090E00E94ED05BC
:1042A00063E287E791E00E94FD0764EF71E080E040
:1042B00090E00E94ED0563E287E791E00E94B1077C
:1042C00068E873E180E090E00E94ED056CE787E725
:1042D00091E00E94FD0764EF71E080E090E00E94B1
:1042E000ED056CE787E791E00E94B10768E873E1AC
:1042F00080E090E00E94ED0560E287E791E00E9497
:10430000FD0764EF71E080E090E00E94ED0560E25F
:1043100087E791E00E94B10768E873E180E090E0F0
:104320000E94ED0560E287E791E00E94FD0764EFDF
:1043300071E080E090E00E94ED0560E287E791E0A7
:104340000E94B10768E873E180E090E00E94ED050B
:1043500060E287E791E00E94FD0764EF71E080E092
:1043600090E00E94ED0560E287E791E00E94B107CE
:1043700068E873E180E090E00E94ED0560E687E781
:1043800091E00E94FD0764EF71E080E090E00E9400
:10439000ED0560E687E791E00E94B10768E873E108
:1043A00080E090E00E94ED056EE287E791E00E94D8
:1043B000FD0764EF71E080E090E00E94ED056EE2A1
:1043C00087E791E00E94B10768E873E180E090E040
:1043D0000E94ED0560E287E791E00E94FD0764EF2F
:1043E00071E080E090E00E94ED0560E287E791E0F7
:1043F0000E94B10768E873E180E090E00E94ED055B
:1044000060E287E791E00E94FD0764EF71E080E0E1
:1044100090E00E94ED0560E287E791E00E94B1071D
:1044200068E873E180E090E00E94ED056AE387E7C9
:1044300091E00E94FD0764EF71E080E090E00E944F
:10444000ED056AE387E791E00E94B10768E873E150
:1044500080E090E00E94ED0560E487E791E00E9433
:10446000FD0764EF71E080E090E00E94ED0560E4FC
:1044700087E791E00E94B10768E873E180E090E08F
:104480000E94ED0564E287E791E00E94FD0764EF7A
:1044900071E080E090E00E94ED0564E287E791E042
:1044A0000E94B10768E873E180E090E00E94ED05AA
:1044B00060E687E791E00E94FD0764EF71E080E02D
:1044C00090E00E94ED0560E687E791E00E94B10769
:1044D00068E873E180E090E00E94ED0560E287E724
:1044E00091E00E94FD0764EF71E080E090E00E949F
:1044F000ED0560E287E791E00E94B10768E873E1AB
:1045000080E090E00E94ED056BE387E791E00E9478
:10451000FD0764EF71E080E090E00E94ED056BE341
:1045200087E791E00E94B10768E873E180E090E0DE
:104530000E94ED0563E287E791E00E94FD0764EFCA
:1045400071E080E090E00E94ED0563E287E791E092
:104550000E94B10768E873E180E090E00E94ED05F9
:1045600066E287E791E00E94FD0764EF71E080E07A
:1045700090E00E94ED0566E287E791E00E94B107B6
:1045800068E873E180E090E00E94ED0563E287E770
:1045900091E00E94FD0764EF71E080E090E00E94EE
:1045A000ED0563E287E791E00E94B10768E873E1F7
:1045B00080E090E00E94ED0560E287E791E00E94D4
:1045C000FD0764EF71E080E090E00E94ED0560E29D
:1045D00087E791E00E94B10768E873E180E090E02E
:1045E0000E94ED0560E287E791E00E94FD0764EF1D
:1045F00071E080E090E00E94ED0560E287E791E0E5
:104600000E94B10768E873E180E090E00E94ED0548
:104610006EE287E791E00E94FD0764EF71E080E0C1
:1046200090E00E94ED056EE287E791E00E94B107FD
:1046300068E873E180E090E00E94ED0565E287E7BD
:1046400091E00E94FD0764EF71E080E090E00E943D
:10465000ED0565E287E791E00E94B10768E873E144
:1046600080E090E00E94ED0563E287E791E00E9420
:10467000FD0764EF71E080E090E00E94ED0563E2E9
:1046800087E791E00E94B10768E873E180E090E07D
:104690000E94ED0565E287E791E00E94FD0764EF67
:1046A00071E080E090E00E94ED0565E287E791E02F
:1046B0000E94B10768E873E180E090E00E94ED0598
:1046C0006EE287E791E00E94FD0764EF71E080E011
:1046D00090E00E94ED056EE287E791E00E94B1074D
:1046E00068E873E180E090E00E94ED0560E287E712
:1046F00091E00E94FD0764EF71E080E090E00E948D
:10470000ED0560E287E791E00E94B10768E873E198
:1047100080E090E00E94ED0560E287E791E00E9472
:10472000FD0764EF71E080E090E00E94ED0560E23B
:1047300087E791E00E94B10768E873E180E090E0CC
:104740000E94ED0561E287E791E00E94FD0764EFBA
:1047500071E080E090E00E94ED0561E287E791E082
:104760000E94B10768E873E180E090E00E94ED05E7
:1047700063E287E791E00E94FD0764EF71E080E06B
:1047800090E00E94ED0563E287E791E00E94B107A7
:1047900068E873E180E090E00E94ED056CE787E750
:1047A00091E00E94FD0764EF71E080E090E00E94DC
:1047B000ED056CE787E791E00E94B10768E873E1D7
:1047C00080E090E00E94ED0560E287E791E00E94C2
:1047D000FD0764EF71E080E090E00E94ED0560E28B
:1047E00087E791E00E94B10768E873E180E090E01C
:1047F0000E94ED0560E287E791E00E94FD0764EF0B
:1048000071E080E090E00E94ED0560E287E791E0D2
:104810000E94B10768E873E180E090E00E94ED0536
:104820006EE287E791E00E94FD0764EF71E080E0AF
:1048300090E00E94ED056EE287E791E00E94B107EB
:1048400068E873E180E090E00E94ED0565E287E7AB
:1048500091E00E94FD0764EF71E080E090E00E942B
:10486000ED0565E287E791E00E94B10768E873E132
:1048700080E090E00E94ED0563E287E791E00E940E
:10488000FD0764EF71E080E090E00E94ED0563E2D7
:1048900087E791E00E94B10768E873E180E090E06B
:1048A0000E94ED0563E287E791E00E94FD0764EF57
:1048B00071E080E090E00E94ED0563E287E791E01F
:1048C0000E94B10768E873E180E090E00E94ED0586
:1048D00060E487E791E00E94FD0764EF71E080E00B
:1048E00090E00E94ED0560E487E791E00E94B10747
:1048F00068E873E180E090E00E94ED0566E287E7FA
:1049000091E00E94FD0764EF71E080E090E00E947A
:10491000ED0566E287E791E00E94B10768E873E180
:1049200080E090E00E94ED0563E287E791E00E945D
:10493000FD0764EF71E080E090E00E94ED0563E226
:1049400087E791E00E94B10768E873E180E090E0BA
:104950000E94ED0563E287E791E00E94FD0764EFA6
:1049600071E080E090E00E94ED0563E287E791E06E
:104970000E94B10768E873E180E090E00E94ED05D5
:1049800060E487E791E00E94FD0764EF71E080E05A
:1049900090E00E94ED0560E487E791E00E94B10796
:1049A00068E873E180E090E00E94ED0563E287E74C
:1049B00091E00E94FD0764EF71E080E090E00E94CA
:1049C000ED0563E287E791E00E94B10768E873E1D3
:1049D00080E090E00E94ED0560E287E791E00E94B0
:1049E000FD0764EF71E080E090E00E94ED0560E279
:1049F00087E791E00E94B10768E873E180E090E00A
:104A00000E94ED0560E287E791E00E94FD0764EFF8
:104A100071E080E090E00E94ED0560E287E791E0C0
:104A20000E94B10768E873E180E090E00E94ED0524
:104A300060E287E791E00E94FD0764EF71E080E0AB
:104A400090E00E94ED0560E287E791E00E94B107E7
:104A500068E873E180E090E00E94ED0560E287E79E
:104A600091E00E94FD0764EF71E080E090E00E9419
:104A7000ED0560E287E791E00E94B10768E873E125
:104A800080E090E00E94ED0560E287E791E00E94FF
:104A9000FD0764EF71E080E090E00E94ED0560E2C8
:104AA00087E791E00E94B10768E873E180E090E059
:104AB0000E94ED0560E287E791E00E94FD0764EF48
:104AC00071E080E090E00E94ED0560E287E791E010
:104AD0000E94B10768E873E180E090E00E94ED0574
:104AE0006AE387E791E00E94FD0764EF71E080E0F0
:104AF00090E00E94ED056AE387E791E00E94B1072C
:104B000068E873E180E090E00E94ED0566E287E7E7
:104B100091E00E94FD0764EF71E080E090E00E9468
:104B2000ED0566E287E791E00E94B10768E873E16E
:104B300080E090E00E94ED0563E287E791E00E944B
:104B4000FD0764EF71E080E090E00E94ED0563E214
:104B500087E791E00E94B10768E873E180E090E0A8
:104B60000E94ED0561E287E791E00E94FD0764EF96
:104B700071E080E090E00E94ED0561E287E791E05E
:104B80000E94B10768E873E180E090E00E94ED05C3
:104B900060E287E791E00E94FD0764EF71E080E04A
:104BA00090E00E94ED0560E287E791E00E94B10786
:104BB00068E873E180E090E00E94ED0560E287E73D
:104BC00091E00E94FD0764EF71E080E090E00E94B8
:104BD000ED0560E287E791E00E94B10768E873E1C4
:104BE00080E090E00E94ED056BE387E791E00E9492
:104BF000FD0764EF71E080E090E00E94ED056BE35B
:104C000087E791E00E94B10768E873E180E090E0F7
:104C10000E94ED0563E287E791E00E94FD0764EFE3
:104C200071E080E090E00E94ED0563E287E791E0AB
:104C30000E94B10768E873E180E090E00E94ED0512
:104C400065E287E791E00E94FD0764EF71E080E094
:104C500090E00E94ED0565E287E791E00E94B107D0
:104C600068E873E180E090E00E94ED056EE287E77E
:104C700091E00E94FD0764EF71E080E090E00E9407
:104C8000ED056EE287E791E00E94B10768E873E105
:104C900080E090E00E94ED0560E287E791E00E94ED
:104CA000FD0764EF71E080E090E00E94ED0560E2B6
:104CB00087E791E00E94B10768E873E180E090E047
:104CC0000E94ED0560E287E791E00E94FD0764EF36
:104CD00071E080E090E00E94ED0560E287E791E0FE
:104CE0000E94B10768E873E180E090E00E94ED0562
:104CF00060E287E791E00E94FD0764EF71E080E0E9
:104D000090E00E94ED0560E287E791E00E94B10724
:104D100068E873E180E090E00E94ED056AE387E7D0
:104D200091E00E94FD0764EF71E080E090E00E9456
:104D3000ED056AE387E791E00E94B10768E873E157
:104D400080E090E00E94ED0560E487E791E00E943A
:104D5000FD0764EF71E080E090E00E94ED0560E403
:104D600087E791E00E94B10768E873E180E090E096
:104D70000E94ED0564E287E791E00E94FD0764EF81
:104D800071E080E090E00E94ED0564E287E791E049
:104D90000E94B10768E873E180E090E00E94ED05B1
:104DA00060E687E791E00E94FD0764EF71E080E034
:104DB00090E00E94ED0560E687E791E00E94B10770
:104DC00068E873E180E090E00E94ED0560E287E72B
:104DD00091E00E94FD0764EF71E080E090E00E94A6
:104DE000ED0560E287E791E00E94B10768E873E1B2
:104DF00080E090E00E94ED0560E287E791E00E948C
:104E0000FD0764EF71E080E090E00E94ED0560E254
:104E100087E791E00E94B10768E873E180E090E0E5
:104E20000E94ED0563E287E791E00E94FD0764EFD1
:104E300071E080E090E00E94ED0563E287E791E099
:104E40000E94B10768E873E180E090E00E94ED0500
:104E500066E287E791E00E94FD0764EF71E080E081
:104E600090E00E94ED0566E287E791E00E94B107BD
:104E700068E873E180E090E00E94ED0564E287E776
:104E800091E00E94FD0764EF71E080E090E00E94F5
:104E9000ED0564E287E791E00E94B10768E873E1FD
:104EA00080E090E00E94ED0560E687E791E00E94D7
:104EB000FD0764EF71E080E090E00E94ED0560E6A0
:104EC00087E791E00E94B10768E873E180E090E035
:104ED0000E94ED0560E287E791E00E94FD0764EF24
:104EE00071E080E090E00E94ED0560E287E791E0EC
:104EF0000E94B10768E873E180E090E00E94ED0550
:104F000060E287E791E00E94FD0764EF71E080E0D6
:104F100090E00E94ED0560E287E791E00E94B10712
:104F200068E873E180E090E00E94ED0560E287E7C9
:104F300091E00E94FD0764EF71E080E090E00E9444
:104F4000ED0560E287E791E00E94B10768E873E150
:104F500080E090E00E94ED0560E287E791E00E942A
:104F6000FD0764EF71E080E090E00E94ED0560E2F3
:104F700087E791E00E94B10768E873E180E090E084
:104F80000E94ED0560E287E791E00E94FD0764EF73
:104F900071E080E090E00E94ED0560E287E791E03B
:104FA0000E94B10768E873E180E090E00E94ED059F
:104FB00060EB87E791E00E94FD0764EF71E080E01D
:104FC00090E00E94ED0560EB87E791E00E94B10759
:104FD00068E873E180E090E00E94ED0560E287E719
:104FE00091E00E94FD0764EF71E080E090E00E9494
:104FF000ED0560E287E791E00E94B10768E873E1A0
:1050000080E090E00E94ED0560E287E791E00E9479
:10501000FD0764EF71E080E090E00E94ED0560E242
:1050200087E791E00E94B10768E873E180E090E0D3
:105030000E94ED0560E287E791E00E94FD0764EFC2
:1050400071E080E090E00E94ED0560E287E791E08A
:105050000E94B10768E873E180E090E00E94ED05EE
:1050600060E287E791E00E94FD0764EF71E080E075
:1050700090E00E94ED0560E287E791E00E94B107B1
:1050800068E873E180E090E00E94ED0560E287E768
:1050900091E00E94FD0764EF71E080E090E00E94E3
:1050A000ED0560E287E791E00E94B10768E873E1EF
:1050B00080E090E00E94ED056CE787E791E00E94B8
:1050C000FD0764EF71E080E090E00E94ED056CE781
:1050D00087E791E00E94B10768E873E180E090E023
:1050E0000E94ED0563E287E791E00E94FD0764EF0F
:1050F00071E080E090E00E94ED0563E287E791E0D7
:105100000E94B10768E873E180E090E00E94ED053D
:1051100061E287E791E00E94FD0764EF71E080E0C3
:1051200090E00E94ED0561E287E791E00E94B107FF
:1051300068E873E180E090E00E94ED0560E287E7B7
:1051400091E00E94FD0764EF71E080E090E00E9432
:10515000ED0560E287E791E00E94B10768E873E13E
:1051600080E090E00E94ED0560E287E791E00E9418
:10517000FD0764EF71E080E090E00E94ED0560E2E1
:1051800087E791E00E94B10768E873E180E090E072
:105190000E94ED0560E287E791E00E94FD0764EF61
:1051A00071E080E090E00E94ED0560E287E791E029
:1051B0000E94B10768E873E180E090E00E94ED058D
:1051C0006CE787E791E00E94FD0764EF71E080E003
:1051D00090E00E94ED056CE787E791E00E94B1073F
:1051E00068E873E180E090E00E94ED0563E287E704
:1051F00091E00E94FD0764EF71E080E090E00E9482
:10520000ED0563E287E791E00E94B10768E873E18A
:1052100080E090E00E94ED056CE787E791E00E9456
:10522000FD0764EF71E080E090E00E94ED056CE71F
:1052300087E791E00E94B10768E873E180E090E0C1
:105240000E94ED0560E287E791E00E94FD0764EFB0
:1052500071E080E090E00E94ED0560E287E791E078
:105260000E94B10768E873E180E090E00E94ED05DC
:1052700060E287E791E00E94FD0764EF71E080E063
:1052800090E00E94ED0560E287E791E00E94B1079F
:1052900068E873E180E090E00E94ED0560E687E752
:1052A00091E00E94FD0764EF71E080E090E00E94D1
:1052B000ED0560E687E791E00E94B10768E873E1D9
:1052C00080E090E00E94ED0565E287E791E00E94B2
:1052D000FD0764EF71E080E090E00E94ED0565E27B
:1052E00087E791E00E94B10768E873E180E090E011
:1052F0000E94ED0563E287E791E00E94FD0764EFFD
:1053000071E080E090E00E94ED0563E287E791E0C4
:105310000E94B10768E873E180E090E00E94ED052B
:1053200063E287E791E00E94FD0764EF71E080E0AF
:1053300090E00E94ED0563E287E791E00E94B107EB
:1053400068E873E180E090E00E94ED0563E287E7A2
:1053500091E00E94FD0764EF71E080E090E00E9420
:10536000ED0563E287E791E00E94B10768E873E129
:1053700080E090E00E94ED0563E287E791E00E9403
:10538000FD0764EF71E080E090E00E94ED0563E2CC
:1053900087E791E00E94B10768E873E180E090E060
:1053A0000E94ED0563E287E791E00E94FD0764EF4C
:1053B00071E080E090E00E94ED0563E287E791E014
:1053C0000E94B10768E873E180E090E00E94ED057B
:1053D00066E287E791E00E94FD0764EF71E080E0FC
:1053E00090E00E94ED0566E287E791E00E94B10738
:1053F00068E873E180E090E00E94ED0563E287E7F2
:1054000091E00E94FD0764EF71E080E090E00E946F
:10541000ED0563E287E791E00E94B10768E873E178
:1054200080E090E00E94ED056EE287E791E00E9447
:10543000FD0764EF71E080E090E00E94ED056EE210
:1054400087E791E00E94B10768E873E180E090E0AF
:105450000E94ED0565E287E791E00E94FD0764EF99
:1054600071E080E090E00E94ED0565E287E791E061
:105470000E94B10768E873E180E090E00E94ED05CA
:1054800063E287E791E00E94FD0764EF71E080E04E
:1054900090E00E94ED0563E287E791E00E94B1078A
:1054A00068E873E180E090E00E94ED0561E287E743
:1054B00091E00E94FD0764EF71E080E090E00E94BF
:1054C000ED0561E287E791E00E94B10768E873E1CA
:1054D00080E090E00E94ED0563E287E791E00E94A2
:1054E000FD0764EF71E080E090E00E94ED0563E26B
:1054F00087E791E00E94B10768E873E180E090E0FF
:105500000E94ED0563E287E791E00E94FD0764EFEA
:1055100071E080E090E00E94ED0563E287E791E0B2
:105520000E94B10768E873E180E090E00E94ED0519
:1055300063E287E791E00E94FD0764EF71E080E09D
:1055400090E00E94ED0563E287E791E00E94B107D9
:1055500068E873E180E090E00E94ED0563E287E790
:1055600091E00E94FD0764EF71E080E090E00E940E
:10557000ED0563E287E791E00E94B10768E873E117
:1055800080E090E00E94ED0563E287E791E00E94F1
:10559000FD0764EF71E080E090E00E94ED0563E2BA
:1055A00087E791E00E94B10768E873E180E090E04E
:1055B0000E94ED056BE387E791E00E94FD0764EF31
:1055C00071E080E090E00E94ED056BE387E791E0F9
:1055D0000E94B10768E873E180E090E00E94ED0569
:1055E00063E287E791E00E94FD0764EF71E080E0ED
:1055F00090E00E94ED0563E287E791E00E94B10729
:1056000068E873E180E090E00E94ED0565E287E7DD
:1056100091E00E94FD0764EF71E080E090E00E945D
:10562000ED0565E287E791E00E94B10768E873E164
:1056300080E090E00E94ED0560E687E791E00E943F
:10564000FD0764EF71E080E090E00E94ED0560E608
:1056500087E791E00E94B10768E873E180E090E09D
:105660000E94ED0561E287E791E00E94FD0764EF8B
:1056700071E080E090E00E94ED0561E287E791E053
:105680000E94B10768E873E180E090E00E94ED05B8
:1056900063E287E791E00E94FD0764EF71E080E03C
:1056A00090E00E94ED0563E287E791E00E94B10778
:1056B00068E873E180E090E00E94ED0560E487E730
:1056C00091E00E94FD0764EF71E080E090E00E94AD
:1056D000ED0560E487E791E00E94B10768E873E1B7
:1056E00080E090E00E94ED056BE387E791E00E9487
:1056F000FD0764EF71E080E090E00E94ED056BE350
:1057000087E791E00E94B10768E873E180E090E0EC
:105710000E94ED0560E287E791E00E94FD0764EFDB
:1057200071E080E090E00E94ED0560E287E791E0A3
:105730000E94B10768E873E180E090E00E94ED0507
:1057400060E287E791E00E94FD0764EF71E080E08E
:1057500090E00E94ED0560E287E791E00E94B107CA
:1057600068E873E180E090E00E94ED0560E287E781
:1057700091E00E94FD0764EF71E080E090E00E94FC
:10578000ED0560E287E791E00E94B10768E873E108
:1057900080E090E00E94ED0560E287E791E00E94E2
:1057A000FD0764EF71E080E090E00E94ED0560E2AB
:1057B00087E791E00E94B10768E873E180E090E03C
:1057C0000E94ED0560E287E791E00E94FD0764EF2B
:1057D00071E080E090E00E94ED0560E287E791E0F3
:1057E0000E94B10768E873E180E090E00E94ED0557
:1057F00060E287E791E00E94FD0764EF71E080E0DE
:1058000090E00E94ED0560E287E791E00E94B10719
:1058100068E873E180E090E00E94ED0560E287E7D0
:1058200091E00E94FD0764EF71E080E090E00E944B
:10583000ED0560E287E791E00E94B10768E873E157
:1058400080E090E00E94ED0560E287E791E00E9431
:10585000FD0764EF71E080E090E00E94ED0560E2FA
:1058600087E791E00E94B10768E873E180E090E08B
:105870000E94ED0560E287E791E00E94FD0764EF7A
:1058800071E080E090E00E94ED0560E287E791E042
:105890000E94B10768E873E180E090E00E94ED05A6
:1058A00060E287E791E00E94FD0764EF71E080E02D
:1058B00090E00E94ED0560E287E791E00E94B10769
:1058C00068E873E180E090E00E94ED056BE387E714
:1058D00091E00E94FD0764EF71E080E090E00E949B
:1058E000ED056BE387E791E00E94B10768E873E19B
:1058F00080E090E00E94ED0563E287E791E00E947E
:10590000FD0764EF71E080E090E00E94ED0563E246
:1059100087E791E00E94B10768E873E180E090E0DA
:105920000E94ED0564E287E791E00E94FD0764EFC5
:1059300071E080E090E00E94ED0564E287E791E08D
:105940000E94B10768E873E180E090E00E94ED05F5
:1059500060E687E791E00E94FD0764EF71E080E078
:1059600090E00E94ED0560E687E791E00E94B107B4
:1059700068E873E180E090E00E94ED0560E287E76F
:1059800091E00E94FD0764EF71E080E090E00E94EA
:10599000ED0560E287E791E00E94B10768E873E1F6
:1059A00080E090E00E94ED0560E287E791E00E94D0
:1059B000FD0764EF71E080E090E00E94ED0560E299
:1059C00087E791E00E94B10768E873E180E090E02A
:1059D0000E94ED0560E287E791E00E94FD0764EF19
:1059E00071E080E090E00E94ED0560E287E791E0E1
:1059F0000E94B10768E873E180E090E00E94ED0545
:105A00006BE387E791E00E94FD0764EF71E080E0BF
:105A100090E00E94ED056BE387E791E00E94B107FB
:105A200068E873E180E090E00E94ED0563E287E7BB
:105A300091E00E94FD0764EF71E080E090E00E9439
:105A4000ED0563E287E791E00E94B10768E873E142
:105A500080E090E00E94ED0563E287E791E00E941C
:105A6000FD0764EF71E080E090E00E94ED0563E2E5
:105A700087E791E00E94B10768E873E180E090E079
:105A80000E94ED0561E287E791E00E94FD0764EF67
:105A900071E080E090E00E94ED0561E287E791E02F
:105AA0000E94B10768E873E180E090E00E94ED0594
:105AB00060E287E791E00E94FD0764EF71E080E01B
:105AC00090E00E94ED0560E287E791E00E94B10757
:105AD00068E873E180E090E00E94ED0560E287E70E
